:020000040800F2
:100000000080012011370008350900083709000871
:10001000390900083B0900083D09000800000000FC
:100020000000000000000000000000003F09000880
:1000300041090008000000004309000845090008C4
:100040006137000861370008613700086137000830
:100050006137000861370008613700086137000820
:100060006137000861370008613700084909000856
:10007000613700085509000861370008613700083A
:1000800061370008613700086137000861370008F0
:1000900061370008613700086137000861370008E0
:1000A00061370008613700086137000861370008D0
:1000B00061370008613700086137000861370008C0
:1000C00061370008613700086137000861370008B0
:1000D00061370008613700086137000861370008A0
:1000E0006137000861370008613700086137000890
:1000F0006137000861370008613700086137000880
:10010000613700086137000861370008613700086F
:10011000613700086137000861370008613700085F
:10012000613700086137000861370008613700084F
:10013000613700086137000861370008613700083F
:10014000613700086137000861370008613700082F
:10015000613700086137000861370008613700081F
:10016000613700086137000861370008613700080F
:10017000613700086137000861370008000000009F
:08018000613700086137000837
:1001880010B5054C237833B9044B13B10448AFF3C9
:1001980000800123237010BD0C0000200000000027
:1001A800BC37000808B5034B1BB103490348AFF33C
:1001B800008008BD0000000010000020BC370008C7
:1001C80053B94AB9002908BF00281CBF4FF0FF31B6
:1001D8004FF0FF3000F07AB9ADF1080C6DE904CEAC
:1001E80000F006F8DDF804E0DDE9022304B070470A
:1001F8002DE9F0478C460D460446089E002B51D148
:100208008A4217466DD9B2FA82FEBEF1000F0BD0B2
:10021800CEF1200C01FA0EF520FA0CFC02FA0EF7CA
:100228004CEA050C00FA0EF44FEA174A250CBCFB01
:10023800FAF81FFA87F90AFB18CC45EA0C4508FBBF
:1002480009F3AB420AD9ED1908F1FF3280F0238196
:10025800AB4240F22081A8F102083D44ED1AA4B255
:10026800B5FBFAF00AFB105544EA054400FB09F90E
:10027800A14509D9E41900F1FF3380F00A81A145AD
:1002880040F2078102383C44A4EB090440EA0840E4
:100298000021002E61D024FA0EF40023346073602C
:1002A800BDE8F0878B4207D9002E54D0002186E89C
:1002B80021000846BDE8F087B3FA83F1002940F031
:1002C8008E80AB4202D3824200F2FA80841A65EB38
:1002D80003050120AC46002E3FD086E81010BDE88B
:1002E800F08712B90127B7FBF2F7B7FA87FEBEF11C
:1002F800000F34D1EB1B3A0C1FFA87FC0121B3FB2A
:10030800F2F8250C02FB183345EA03450CFB08F309
:10031800AB4207D9ED1908F1FF3002D2AB4200F227
:10032800D1808046ED1AA3B2B5FBF2F002FB10555E
:1003380043EA05440CFB00FCA44507D9E41900F185
:10034800FF3302D2A44500F2B8801846A4EB0C048F
:1003580040EA08409DE731463046BDE8F087CEF1D7
:10036800200405FA0EF307FA0EF720FA04F83A0CFF
:1003780025FA04F448EA0308B4FBF2F14FEA1845F9
:1003880002FB11441FFA87FC45EA044501FB0CF304
:10039800AB4200FA0EF409D9ED1901F1FF3080F0F3
:1003A8008A80AB4240F2878002393D44EB1A1FFA3B
:1003B80088F5B3FBF2F002FB103345EA034500FB76
:1003C8000CF3AB4207D9ED1900F1FF386FD2AB42FD
:1003D8006DD902383D44EB1A40EA01418FE7C1F17B
:1003E800200722FA07F88B4005FA01F448EA0303CC
:1003F80020FA07FE4FEA134CFD404EEA040EB5FB07
:10040800FCF94FEA1E440CFB19551FFA83F844EA1D
:10041800054509FB08F4AC4202FA01F200FA01FAB8
:1004280008D9ED1809F1FF3043D2AC4241D9A9F1FE
:1004380002091D442D1B1FFA8EFEB5FBFCF00CFBB8
:1004480010554EEA054400FB08F8A04507D9E41802
:1004580000F1FF3529D2A04527D902381C4440EACB
:100468000940A4EB0804A0FB02894C45C6464D464A
:1004780015D312D056B1BAEB0E0364EB050404FA97
:1004880007F7CB401F43CC40376074600021BDE8BC
:10049800F0871846F8E69046E0E6C245EAD2B8EB9F
:1004A800020E69EB03050138E4E72846D7E7404622
:1004B80091E78146BEE7014678E702383C4445E7C4
:1004C800084608E7A8F102083D442BE7704700BF3B
:1004D80010B500248AB01822214604A80194029479
:1004E800039403F05FF91C481C4B846080E81800F3
:1004F800082343610123C460046104764376C36121
:1005080080F8204043628462C46280F830304463DB
:1005180080F8384000F070FB08B100F0EDF901A94F
:100528000D48019400F0A4FF08B100F0E5F90C4B68
:10053800049306230593072306937F230793042335
:10054800089304A900230448099300F07FFC08B12C
:1005580000F0D2F90AB010BD2800002000000450B5
:100568004000201930B5054689B01422002103A89F
:1005780003F018F92A681F4B9A4238D103F17043E7
:10058800A3F5F8331C4CDA6C42F40052DA64DA6CE6
:1005980002F400520192019ADA6C42F00102DA6424
:1005A800DB6C03F001030293029B022303934FF0D9
:1005B80090400B2303A9049301F0EEFA80222261F4
:1005C8004FF400720D4B62614FF400622360A26128
:1005D8000023202220466360A360E360E261236277
:1005E80001F0EEF908B100F087F9EC64A56209B0F2
:1005F80030BD00BF000004508C00002008000240FD
:1006080000B58BB02422002101A803F0CBF80F48D5
:100618000F4B036001F00EF808B100F06DF90022ED
:10062800242301A909480192029303920492059296
:1006380001F09CF808B100F05FF9002201A9034815
:1006480001F020F90BB05DF804FB00BFD4000020D6
:100658000074004070B5054688B01422002103A834
:1006680003F0A0F82A681E4B9A4237D103F5CE331F
:1006780010269A6D1B4C42F000529A659A6D02F052
:1006880000520192019ADA6C42F00102DA64DB6CE2
:10069800039603F001030293029B4FF0904003235B
:1006A80003A9049301F078FA0F4AA660062384E8A8
:1006B8000C00802222614FF4007262614FF40062E4
:1006C8000023A26120462022E360E261236201F058
:1006D80077F908B100F010F9AC60A56208B070BDF8
:1006E80000740040E8000020300002400E4B07B5BF
:1006F8009A6C42F001029A649B6C002203F0010399
:10070800114601930B20019B00F03CFF0B2000F0E9
:100718006DFF002211460D2000F034FF0D2000F07F
:1007280065FF03B05DF804FB0010024010B5142209
:100738008AB00DEB0200002103F034F8214BDA6C8B
:1007480042F00402DA64DA6C02F004020192019ABF
:10075800DA6C42F08002DA64DA6C02F0800202920B
:10076800029ADA6C42F00102DA64DA6C02F00102F1
:100778000392039ADA6C42F00202DA64DB6C03F04B
:1007880002030022049320214FF09040049B01F0C3
:10079800DFFA4FF400530024059305A90A4B0B48D0
:1007A8000693079401F0F8F92023059305A901237E
:1007B8004FF0904006930794089401F0EDF90AB0C1
:1007C80010BD00BF001002400000211000080048C2
:1007D800F0B5B9B04422002105A802F0E3FF1422C5
:1007E8000021684602F0DEFF8822002116A802F0E8
:1007F800D9FF4FF48073089310230224099301272B
:100808000A23072605A80025129305940F9410942F
:10081800119713961494159401F06EFB0F2204217E
:10082800032368468DE82C000395049501F0EAFD42
:1008380044F2020316934FF080533493082319931C
:1008480016A84FF080731D932595179418971A963C
:100858001B941C9401F09CFF4FF4007001F086FA81
:1008680039B0F0BD13B500F071F9FFF7B1FFFFF72C
:100878005DFFFFF73BFFFFF7C3FE00F091F800F0C4
:10088800EFF8FFF725FE7F21144800F0A7FD144973
:100898001248012200F0E8FC124B0024191D4FF405
:1008A8000060BCB908600134102C03F10403F8D1CE
:1008B8000D4802F081FA0D4A0D484CF2503313608E
:1008C8004FF080420021D36200912346094A00F08C
:1008D800C5FEFEE71A6880325A60E4E72800002067
:1008E800300100203401002078010020340100206C
:1008F800D400002038010020704700000A4B1A6E0F
:1009080042F001021A661A6E82B002F001020092E9
:10091800009A9A6D42F080529A659B6D03F080535D
:100928000193019B02B07047001002407047FEE738
:10093800FEE7FEE7FEE770477047704700F01CB916
:10094800014801F0DFB800BF8C000020014801F029
:10095800D9B800BFE80000200F49D1F8883043F427
:100968007003C1F888300D4B1A68002042F001026C
:100978001A6098601A6822F0A85222F410221A60AD
:100988004FF48052DA601A6822F480221A60986163
:100998004FF000638B60704700ED00E000100240EC
:1009A80010B58EB01022002103A802F0FBFE00242F
:1009B8001C220DEB0200214600940194029402F0DF
:1009C800F1FE1C484F234FF0804280E80C001A4B80
:1009D8008460C3600461846102F06EFA08B1FFF7B5
:1009E8008BFF4FF4805303A91248039302F020FBB6
:1009F80008B1FFF781FF0F4802F078FA08B1FFF756
:100A08007BFF2023002469460A480093029402F0E1
:100A1800A3FB08B1FFF770FF002207A90548079458
:100A2800089409940B9402F0C1FA08B1FFF764FF27
:100A38000EB010BD780100203F420F000368B3F1EB
:100A4800804F82B00AD103F504339A6D42F0010257
:100A58009A659B6D03F001030193019B02B07047F7
:100A680008B50C480C4B4FF4E13E80E808400C22D6
:100A780000238360C360036142618361C3610362D1
:100A8800436202F012FE18B1BDE80840FFF734BF18
:100A980008BD00BFB80100200044004010B504465E
:100AA80088B01422002103A802F07CFE2268134BB0
:100AB8009A4220D103F5E63303A99A6D42F4003235
:100AC8009A659A6D02F400320192019ADA6C42F04A
:100AD8000102DA64DB6C03F001030293029B0C232E
:100AE800039302230493032306934FF090400723B4
:100AF800079301F051F808B010BD00BF0044004052
:100B080038B50F4B0546186808B9012038BD0D4A9D
:100B18004FF47A73B3FBF0F31068B0FBF3F000F016
:100B280073FD04460028F0D10F2DEED80246294661
:100B38004FF0FF3000F026FD034B20461D6038BD06
:100B4800040000200000002008000020094A136863
:100B580043F4807310B50320136000F001FD0020FA
:100B6800FFF7CEFF044618B9FFF7C8FE204610BDB0
:100B78000124FBE700200240034A0449136809687E
:100B88000B441360704700BF3802002004000020A7
:100B9800014B1868704700BF3802002038B504467A
:100BA800FFF7F6FF631C1CBF054B1B68054618BF03
:100BB800E418FFF7EDFF401B8442FAD838BD00BFA8
:100BC8000400002030B5CC0D04F004041430C1F347
:100BD8000451235807258D4023EA050302FA01F141
:100BE8001943215030BD806800F0010070478068CB
:100BF800C0F380007047000037B500230193044616
:100C0800002800F08580456D25B9FFF7ABFCA56588
:100C180084F85050206883689B007BD48368DD008B
:100C28007FD58368D90040F18A800021FFF7DFFF74
:100C3800636D13F0100F636D67D1002865D123F43D
:100C4800817343F0020363652068FFF7CCFF98B90E
:100C58005248FFF7C8FF03465148FFF7C4FF034354
:100C68005048FFF7C0FF034306D14F4A60689368B6
:100C780023F47C1303439360E068636B94F82020AB
:100C88000343A0680343607E012A43EA403343EAF2
:100C9800024302BF626A02F1FF3243EA4243A26A98
:100CA80022B1E06A02F470720243134320683F4A9B
:100CB800C5682A401343C360FFF799FF23689A6801
:100CC800120746D52269012A05BF186BE2691A6B1B
:100CD80002F1FF3206BF20F00F00024322F00F029C
:100CE8001A63636D23F0030343F001036365084649
:100CF80003B030BD019B013B0193019B002BF9D14F
:100D08008FE71A6922F0010245E043F0100363659A
:100D18000121ECE7836823F0204323F03F0383603D
:100D28007CE78368224A23F0104323F03F0343F013
:100D3800805383601F4B1B68B3FBF2F3DCE7636DE2
:100D480043F010036365A36D43F00103A36501211C
:100D58006CE70028B6D1D86894F83020257E520078
:100D680020F4804042EA853220F002000243DA6033
:100D780094F83820012AC4D1256CE26B18692A43FB
:100D8800656C42F001022A43A56C20F4FF602A43F7
:100D980020F0040002431A6194E700BF00000450E9
:100DA80000010450000204500003045007C0F0FF83
:100DB800400D0300000000207047704708B5806AA6
:100DC800FFF7FBFF08BD7047836A5A6D12F0500F9A
:100DD80010B55A6D21D142F400725A651A6811682B
:100DE800080707D5D16811F4406F12D1D26812F400
:100DF800005F02E0D26812F0020F0AD15A6D22F4A5
:100E080080725A655A6DD1045EBF5A6D42F0010274
:100E18005A651846FFF7D0FF10BDD20603D518460D
:100E2800FFF7D1FF10BDDB6CBDE810405B6B1847C6
:100E3800806A08B5436D43F040034365836D43F012
:100E480004038365FFF7BFFF08BD0000F7B5002363
:100E5800019390F85030012B05460C4600F0848130
:100E6800012380F850300068FFF7C1FE002840F0E9
:100E780075814B68052B08D8023B032B66D8DFE841
:100E880003F0025E60620C2363606268286823686E
:100E9800910901F00C0100F1300702F01F02CE5950
:100EA8004FF01F0EC3F3846393400EFA02F226EA52
:100EB80002021343CB51FFF79AFE2B689A68110779
:100EC80040F154812868FFF78EFE002840F0D38057
:100ED800E66828682368BA4AD0F8B01006F0180EF9
:100EE800C3F3120722FA0EF21A4021EA07010A4355
:100EF800C0F8B020B34A964240F0BD80002F40F0C1
:100F08008F809E0E013606F01F02092A4FF001015C
:100F18004FEA866640F29E8006F0F846914041EA24
:100F28000602002F40F0C7809B0E013303F01F0319
:100F380003EB43011E39090541F0007197E01223C4
:100F4800A2E71823A0E74FF480739DE706239BE7E9
:100F5800196E196EC2F31206C1F38461002E3ED1D8
:100F6800C2F384628A4202BF1A6E22F000421A66F5
:100F78005A6E22685E6EC2F31207C6F3846600F1E9
:100F88000C018FBBC2F38467BE4240F012815A6ED7
:100F980022F000425A66226883688368C2F3120707
:100FA80000F10806C3F3846357BBC2F3846293421B
:100FB80040F01C81336823F000433360C368236822
:100FC800C268C3F31200C2F3846220BBC3F3846314
:100FD800934202BF0B6823F000430B6072E792FA5A
:100FE800A2F2B2FA82F2BDE792FAA2F7B7FA87F74D
:100FF800BE42CCD003F168069F6E9B6EC3F3846338
:1010080092FAA2F2B2FA82F29A42D3D0C368C268C4
:101018002368C2F3846293FAA3F3B3FA83F3D7E79E
:1010280093FAA3F2B2FA82F2013202F01F02092AFD
:1010380030D893FAA3F6B6FA86F60136B60606F065
:10104800F84693FAA3F1B1FA81F1013101F01F02D8
:10105800012101E006F0F846914041EA0602A7B9ED
:10106800990E013101F01F0101EB410109051143FE
:10107800A268FFF7A7FD2268534B1A4220D100202F
:10108800002385F8503003B0F0BD93FAA3F1B1FA0C
:1010980081F1E6E793FAA3F2B2FA82F201329206FC
:1010A80002F0F84693FAA3F1B1FA81F1013101F0A7
:1010B8001F02012132E793FAA3F3B3FA83F334E76B
:1010C8004249434B88689A4200F0E0760C461ED1AC
:1010D8000202D4D42B683F4A934203D002F500722F
:1010E8009342CCD1A3683C4A23F0E073334343F4E2
:1010F8000003A360394B1B68B3FBF2F20C23534384
:101108000193019B002BBAD0019B013BF8E7344BBC
:101118009A4211D1C301B2D42B682E4A934203D00C
:1011280002F500729342AAD1A36823F0E073334317
:1011380043F08073A360A2E72A4B9A429FD110F430
:1011480080009CD12A68234B9A4298D18B6823F05F
:10115800E073334343F480038B6091E76A6D42F098
:1011680020026A6518468BE702208CE700287FF486
:10117800A9AE1846A2682168FFF724FD26692B68E6
:101188002268D968042E03F160003FF4E1AEC1F390
:10119800C1035900636950F8267002F0F84242F022
:1011A80000428B401343104A3A40134340F826301C
:1011B80088E603F168069F6E9B6EC3F38463F4E6CA
:1011C800FFFF070000007F40000008800003045074
:1011D800000052C700000450400D0300000000202A
:1011E800000084CB0100008000F0FF03C368C268E0
:1011F8002368C2F38462E9E670B504460068FFF725
:10120800F2FC08B1002070BD2268154B91681942A4
:1012180009D0636D43F010036365A36D43F00103C8
:10122800A365012070BD93680E4D2B4043F0010368
:101238009360FFF7ADFC064620680368DB07E1D43E
:10124800FFF7D1FC28B9226893682B4043F00103CB
:101258009360FFF79DFC801B0228EDD9D9E700BFFA
:101268003F000080C0FFFF7F394B2DE9F041044665
:1012780000689B680E461746FFF7B9FC00285FD147
:1012880094F85020012A5BD003F01F08B8F1090F29
:101298004FF0010384F850309EBF40F2212323FA17
:1012A80008F3DB4313F0010544D12046FFF7A4FF00
:1012B80000283BD1636D216823F4706323F0010398
:1012C80043F480736365234B99423CD0636D23F4E8
:1012D80080136365636DE06C13F480531CBFA36DCA
:1012E80023F00603A3651C4BC3621C4B03631C4B12
:1012F80043631C230B60002384F850304B6843F091
:1013080010034B60CB6843F00103CB6032463B4689
:10131800403100F0B7FB2268936823F0004323F0C4
:101328003F0343F004039360BDE8F08184F8505014
:10133800BDE8F081002384F850300120BDE8F08139
:101348000220BDE8F081B8F1000FBFD0C2E700BFAE
:101358000003045000010450D10D0008C50D000819
:10136800390E000838B504460068836803F00203A4
:10137800FFF739FC08B9002038BD002BFBD12268E3
:10138800936803F00D03012B15D1936823F00043F4
:1013980023F03F0343F00203936003231360FFF736
:1013A800F7FB054623689B68DB07E4D5FFF7F0FBEE
:1013B800401B0228F6D9636D43F010036365A36DE3
:1013C80043F00103A365012038BD806800F00100E7
:1013D80070478068C0F380007047000037B500236D
:1013E800019390F85030012B04460D4636D0012366
:1013F80080F85030FFF7B6FF636D40BB23F4885385
:1014080023F00203226843F002036365916805F044
:10141800804521F0404121F03F0145F000450D4352
:10142800124995609368002B1ADA019B01330193E6
:10143800019B8B42F6D9636D23F0120343F010032E
:101448006365002384F85030012003B030BD43F0B9
:1014580010036365002384F85030F6E70220F4E7B0
:10146800636D23F0030343F00103F2E7FF870400F1
:1014780030B590F85030012B9BB0024666D001235E
:1014880080F85030324B006898420CBF03F58073E7
:1014980000230193019840B9536D82F8500043F03E
:1014A8002003536501201BB030BDFFF792FF0346B0
:1014B8001068FFF78EFF002842D1002B40D10B683F
:1014C800244C33B3A368486823F46043034392F879
:1014D800300043EA4033A3601D48FFF776FF034618
:1014E8001D48FFF772FF03431C48FFF76EFF1843C0
:1014F80004D00020002382F85030D4E70B68A56898
:1015080089680B4325F4716121F00F010B43A36037
:10151800F0E7A3680E4823F46043A360FFF755FF84
:1015280003460D48FFF751FF03430C48FFF74DFFF3
:101538001843DED1A36823F4716323F00F03E6E7B1
:10154800536D43F0200353650120D3E70220AAE737
:10155800000004500003045000010450000204502D
:10156800074AD36823F4E0631B041B0C43F0BF63F2
:10157800000243F4003300F4E0600343D360704793
:1015880000ED00E0174B30B5DC68C4F30224C4F169
:101598000703251D042B28BF0423062D4FF0010542
:1015A80005FA03F303F1FF338CBF033C0024194011
:1015B800A14005FA04F4013C2240002842EA010255
:1015C8004FEA0212ADBF00F1604000F00F00064B79
:1015D80000F56140B5BFD2B2D2B21A5480F80023E8
:1015E80030BD00BF00ED00E014ED00E0002808DB8E
:1015F8004209012300F01F0003FA00F0014B43F8F1
:101608002200704700E100E00138B0F1807F0AD283
:10161800064B074A5860F02182F823100020072261
:1016280098601A6070470120704700BF10E000E022
:1016380000ED00E010B5044668B1037903F0FF023D
:1016480013B94271FFF706F8022323710020012322
:101658002061237110BD012010BD0000F8B50546BA
:10166800407901280E464FF002001146069A54D0E0
:1016780001246C7128712C68E6B9A868274FC762E5
:10168800274F0763274F47632768042A47F4805783
:10169800276009D0082A0AD0002A3CD104F10802A0
:1016A800276847F400571AE004F10C02F8E704F140
:1016B8001002F5E7E8681C4FC7621C4F07631C4F10
:1016C80047632768042A47F08057276016D0082AFE
:1016D80017D0F2B904F11402276847F000572760C1
:1016E80000F0D0F900236B7170B92B6806F0100177
:1016F8001A6801268E4016431E60F8BD04F11802D0
:10170800EAE704F11C02E7E72B6943F004032B61C5
:10171800F8BD0022E0E73246C2E7F8BD3F170008EF
:10172800511700085D17000897190008A719000845
:10173800B1190008704710B5846A2046FFF7FAFF10
:101748000123237110BD704708B5806AFFF7FBFFBE
:1017580008BD704710B5846A236943F00403236108
:101768002046FFF7F6FF0123237110BDF8B5437932
:10177800012B04460D4616464FF0020063D00B6855
:1017880020710122042B627125D1002E6CD1FFF744
:10179800FFF9074623685B6B1B0455D40120FFF74C
:1017A800FDF92368AA691A64216806F010008A6C9A
:1017B80040F2FF33834022EA0302EB6983401A4375
:1017C8008A64CB6CFF22824023EA02032A6A02FA67
:1017D80000F00343CB642B69012B06F01002236849
:1017E80008D1996B1F20904021EA00006969914057
:1017F80001439963D96BAE680720904021EA000045
:1018080029683143EE68314391400143D96319682F
:101818004FF48040904021EA00011960196840F6B1
:10182800FC70904021EA000069689140014319600A
:101838001968C02000FA02F221EA02021A600020A8
:10184800012323716071F8BDFFF7A2F9C01B0128BD
:10185800A0D92369032043F0080323612071F8BD50
:10186800FFF796F90128F4D823685B6B002BF7DBA8
:101878000120FFF793F92368AA695A6494E770472F
:10188800704770472DE9F04F884685B00546002817
:1018980079D00379022B76D04379012B75D029684A
:1018A80002F0100B0723CE6B012003FA0BF70B682D
:1018B800687100FA0BF023EA00000860CB6B23EA9A
:1018C8000703CB630391039B002A5AD10833039380
:1018D800039B4FF400621A600B684FF4804A0AFABF
:1018E8000BFA1F2443EA0A0304FA0BF40B60E443DF
:1018F800042108224FF010092868836B09FA0BFEAF
:10190800234043EA0E03836301208DE80600FFF7B6
:1019180045F928689DE80600436B3AEA03030CBFC3
:10192800A9EB0209914401394FEA5202E4D1836BD1
:1019380009FA0BF22340134383630120FFF72EF9C2
:101948002A68536B1AEA030F07D1936B09F101094F
:101958001C4009FA0BF323439363136823EA0A0331
:101968001360D16BC8F814900123C8F8103086EAC8
:1019780001033B404B400020D363687105B0BDE8CC
:10198800F08F1433A3E70120F8E70220F6E710B53B
:10199800846A2046FFF773FF0123237110BD08B541
:1019A800806AFFF76DFF08BD10B5846A236943F0AC
:1019B800040323612046FFF764FF0123237110BD50
:1019C80030B500284ED00168274B99424FF01404D7
:1019D80040D8264A0A44B2FBF4F292004264A3F2C9
:1019E80007430364022380F825308468C3680569C7
:1019F8000A6823432B4345692B4385692B43C569F3
:101A08002B43056A22F4FF4222F070022B43134352
:101A1800B4F5804F0B6014D0026C154B9A420CBF82
:101A280014491549436C0A6803F01C030F249C40B1
:101A380022EA04020A6042680C6802FA03F32343AC
:101A48000B6000230122C36380F8243080F825202E
:101A5800184630BD094B0B44B3FBF4F39B004364B9
:101A6800074BBEE7012030BD07040240F8FFFDBF69
:101A780000000240A8000240A8040240F8FBFDBF95
:101A880000040240F0B590F82440012C38D090F8BA
:101A980025500124EDB2A54280F824404FF00006FD
:101AA8004FF002042AD180F825400468C6632668EE
:101AB800076C26F001062660466C06F01C06B54049
:101AC8007D60636083680568102B036B0BBFA260A1
:101AD800A160E160E2604BB1236843F00E0323602C
:101AE8002B6843F001032B600020F0BD236823F02E
:101AF80004032360236843F00A03F0E780F82460B6
:101B08000220F0BD016C426C036870B402F01C0244
:101B18000E681D680424944026420ED015F0040F68
:101B28000BD01A6892065EBF1A6822F004021A6087
:101B3800036B4C6073B370BC184702249440264270
:101B480012D015F0020F0FD01A68950606D41A683D
:101B580022F00A021A60012380F8253000234C6025
:101B680080F82430C36AE5E708249440344211D051
:101B78002C070FD51C6824F00E041C60012303FAFF
:101B880002F24A60C36380F82530002380F82430CD
:101B9800436BCFE770BC70472DE9F04F85B00B68F9
:101BA800DFF8A891674C01930023019ADA4002D12B
:101BB80005B0BDE8F08F0127019A9F4012EA070E91
:101BC80000F0B1804A6822F0100808F1FF35012DB5
:101BD8004FEA430C12D88668032505FA0CF526EA65
:101BE8000506CD6805FA0CF5354385604668C2F3ED
:101BF800001526EA07069D403543456002F00306B6
:101C0800032E07D1C56A25EA0707C2F3C0059D4020
:101C18002F43C7620325C76805FA0CF5ED4307EAA9
:101C2800050A8F6807FA0CF747EA0A07B8F1020FA6
:101C3800C76016D14FEAD30A00EB8A0A03F0070BF4
:101C4800DAF820704FEA8B0B4FF00F0808FA0BF800
:101C580027EA08080F6907FA0BF747EA0807CAF8DE
:101C68002070076806FA0CF63D4035430560D5003C
:101C780059D5D9F8605045F00105C9F86050D9F830
:101C8800605023F0030606F1804605F0010506F5CD
:101C98008036039503F0030C039DB5684FEA8C0C5E
:101CA8000F2707FA0CF7B0F1904F25EA07073CD049
:101CB800254DA8423BD005F58065A84239D005F5E9
:101CC8008065A84237D005F58065A84235D005F56E
:101CD8008065A84233D005F58065A84214BF072562
:101CE800062505FA0CF53D43B56025686FEA0E0632
:101CF800D70354BF35404EEA05052560656897034C
:101D080054BF35404EEA05056560A568D70254BF43
:101D180035404EEA0505A560E568920254BF354096
:101D28004EEA0505E56001333FE70025D9E70125BF
:101D3800D7E70225D5E70325D3E70425D1E705250D
:101D4800CFE700BF00040140000400480010024033
:101D58000AB181617047816270470000024B1868C0
:101D680000F4C060704700BF00700040174B1A684D
:101D7800B0F5007F02F4C0621CD1B2F5007F15D027
:101D88001A6822F4C06242F400721A60104A11689C
:101D980032224A430F49B2FBF1F21946013258691F
:101DA800400500D522B94B695B050DD4002070476A
:101DB800013AF4E7B2F5806F1FBF1A6822F4C062D7
:101DC80042F480621A60F1E7032070470070004017
:101DD8000000002040420F0037B51E4DAB6DDA0001
:101DE800044618D5FFF7BAFFB0F5007F23D1802C41
:101DF80029D9A02C8CBF02200120174A136823F090
:101E0800070303431360136803F00703181A18BF86
:101E1800012003B030BDAB6D43F08053AB65AB6DB3
:101E280003F080530193019BFFF798FFAB6D23F0FC
:101E38008053AB65D8E7802C07D808D0A4F170038D
:101E480058425841D9E70020D7E70320D5E70220B8
:101E5800D3E700BF0010024000200240224B9A68DE
:101E6800D96812F00C0205D00C2A15D101F0030133
:101E7800012918D119681D48090755BFD3F89410CE
:101E88001968C1F30321C1F3031150F821004AB3C3
:101E98000C2A09D000207047042A22D0082A1448A6
:101EA80018BF002070470020DA6802F00302022AF7
:101EB80015D00F49032A08BF0846DA68D968DB68D5
:101EC800C3F34163C1F30621C2F30212013348434D
:101ED80001325B00B0FBF2F0B0FBF3F0704705484D
:101EE800EBE70448704700BF00100240EC370008D9
:101EF80000127A000024F4002DE9F743054618B9CA
:101F0800012003B0BDE8F083A74C0368A668E76822
:101F1800D80606F00C0607F003073DD51EB10C2EB7
:101F280066D1012F64D12368990702D5AB69002BCC
:101F3800E6D02368286A1A0756BFD4F89430236875
:101F48001B0903F0F00383423BD2FFF745FF00284B
:101F5800D6D1236843F00803236023682A6A23F054
:101F6800F003134323606368EA6923F47F4343EA79
:101F780002236360FFF772FFA3688C4AC3F303135D
:101F8800D35C03F01F03D840894B1860894B18684D
:101F9800FEF7B6FD0028B4D12B68D9075FD42B68AB
:101FA8009A0700F19E802B68190700F1D2802B68F0
:101FB8005A0700F10181AB6A002B40F06A810020CA
:101FC8009FE7236843F008032360236823F0F003A6
:101FD800034323606368EA6923F47F4343EA0223E7
:101FE8006360002EC6D1FFF7F7FE0028C2D087E74E
:101FF800AB691BB3236843F001032360FEF7C8FDF8
:10200800804623689B0711D5236843F008032360A3
:1020180023682A6A23F0F003134323606368EA699C
:1020280023F47F4343EA02236360B5E7FEF7B0FD7C
:10203800A0EB08000228E4D9032062E7236823F014
:1020480001032360FEF7A4FD804623689807A3D503
:10205800FEF79EFDA0EB08000228F6D9ECE7082E53
:1020680003D00C2E08D1032F06D123689B0396D5E5
:102078006B68002B93D143E76B68B3F5803F10D1B1
:10208800236843F480332360FEF782FD804623688B
:10209800980384D4FEF77CFDA0EB08006428F6D9E9
:1020A800CAE7B3F5A02F04D1236843F48023236043
:1020B800E6E7226822F480322260226822F4802235
:1020C8002260002BE0D1FEF763FD80462368990368
:1020D8007FF565AFFEF75CFDA0EB08006428F5D935
:1020E800AAE7042E03D00C2E10D1022F0ED123689C
:1020F8005A0503D5EB68002B3FF402AF63682A69E1
:1021080023F0F85343EA026363604CE7EB687BB162
:10211800236843F480732360FEF73AFD074623687B
:102128005B05EBD4FEF734FDC01B0228F7D983E723
:10213800236823F480732360FEF72AFD074623688B
:1021480058057FF530AFFEF723FDC01B0228F6D9EE
:1021580072E76B699BB1D4F8943043F00103C4F87B
:102168009430FEF715FD0746D4F894309B073FF5E9
:102178001EAFFEF70DFDC01B0228F5D95CE7D4F8A9
:10218800943023F00103C4F89430FEF701FD0746AC
:10219800D4F8943098077FF50AAFFEF7F9FCC01B16
:1021A8000228F5D948E700BF00100240D4370008DC
:1021B8000000002008000020A36DD90029D4A36DD9
:1021C80043F08053A365A36D03F080530193019BF3
:1021D8004FF00108894F3B68DA051DD5AB68012B24
:1021E8002BD1D4F8903043F00103C4F89030FEF7B7
:1021F800CFFC41F288390746D4F89030980742D589
:10220800B8F1000F3FF4D7AEA36D23F08053A36558
:10221800D1E64FF00008DDE73B6843F480733B608C
:10222800FEF7B6FC81463B68DB05D7D4FEF7B0FC69
:10223800A0EB09000228F6D9FEE6052B06D1D4F852
:10224800903043F00403C4F89030CAE7D4F89020E3
:1022580022F00102C4F89020D4F8902022F0040261
:10226800C4F89020002BC2D1FEF792FC41F28839C5
:102278000746D4F890309907C2D5FEF789FCC01BF1
:102288004845F6D9D8E6FEF783FCC01B4845B3D9C4
:10229800D2E6022B40F08F80E368EA6A03F003017C
:1022A800914224D1296B03F070020139B2EB011F6E
:1022B8001DD1696B03F4FE42B2EB012F17D1AA6B53
:1022C800073A03F4003118BF012291420FD1EA6B9B
:1022D800520803F4C001013AB1EB425F07D12A6CFE
:1022E800520803F0C063013AB3EB426F4AD00C2E98
:1022F8003FF406AE23685A013FF502AE2368DB00BF
:102308003FF5FEAD236823F080732360FEF740FCA1
:10231800064623689F012FD4E268394B1340EA6AC6
:1023280013436A6B43EA02232A6B013A43EA021316
:10233800AA6B120943EA4243EA6B5208013A43EA9C
:1023480042532A6C5208013A43EA4263E360236825
:1023580043F080732360E36843F08073E360FEF723
:1023680017FC0546236898013FF529AEFEF710FCD7
:10237800401B0228F6D95FE6FEF70AFC801B0228FC
:10238800C7D959E6236899013FF519AE236843F088
:1023980080732360E36843F08073E360FEF7F8FB23
:1023A800054623689A013FF50AAEFEF7F1FB401B8C
:1023B8000228F6D940E60C2E3FF4A2AD236823F09C
:1023C80080732360236813F0205F02BFE36823F063
:1023D8000303E360E36823F0887323F48033E36046
:1023E800FEF7D6FB054623689B017FF5E8ADFEF7AF
:1023F800CFFB401B0228F6D91EE600BF0070004044
:102408008C809DF92DE9F0410E46044610B9012053
:10241800BDE8F081414A136803F007038B422AD3D1
:102428002368D90732D421688A075CD43B4A1368E9
:1024380003F007039E425ED311F0040F384D65D1B7
:102448000B0706D5AB68226923F4605343EAC2033D
:10245800AB60FFF703FDAB68324AC3F30313BDE873
:10246800F041D35C03F01F03D8402F4B18602F4B6B
:102478001868FEF745BB136823F007030B43136086
:10248800136803F007039942C1D1C9E76268244D74
:10249800032A2B681BD113F0007FB8D0AB6823F058
:1024A80003031343AB60FEF773FB41F2883807461A
:1024B800AB68626803F00C03B3EB820FB3D0FEF78E
:1024C80067FBC01B4045F3D90320BDE8F081022A11
:1024D80002D113F4003FE0E712B913F0020FDCE772
:1024E80013F4806FD9E70E4AA068936823F0F003CD
:1024F800034393609AE7136823F007033343136099
:10250800136803F007039E4281D195E7AB68E26840
:1025180023F4E0631343AB6092E700BF002002405E
:1025280000100240D43700080000002008000020F6
:10253800054B064A9B68C3F30223D35C044A106820
:1025480003F01F03D840704700100240E43700082A
:1025580000000020054B064A9B68C3F3C223D35CE6
:10256800044A106803F01F03D84070470010024067
:10257800E437000800000020F8B5454BDA6812F08F
:10258800030F05460E461C4600682AD0DA6802F09A
:10259800030282423CD1002A3AD0DB686A68C3F35E
:1025A80002130133934233D1236823F080632360FD
:1025B800FEF7EEFA074623681A0132D4AF68002EF8
:1025C80036D0012E50D12269286922F4C002400871
:1025D80022F4FE42013842EA072242EA40522261CE
:1025E80032E0022810D0032814D0012810D11B682B
:1025F8009F0738D5E3686A6823F07303013A1843E4
:1026080040EA0210E060CFE71B6813F4806FF1D155
:102618000120F8BD1A689103ECD41B6813F4802FCD
:10262800F5E7FEF7B5FAC01B0228C4D90320F8BDA8
:102638002169EB6821F41F3121F4407141EA072137
:102648001B0941EA43412161236843F08063236009
:10265800FEF79EFA064623681B0113D52369AA696B
:10266800134323610020F8BD2369686923F0C06320
:10267800400823F4FE43013843EA072343EA406352
:102688002361E1E7FEF784FA801B0228E3D9CDE74E
:1026980000100240F8B53D4BDA6812F0030F05460A
:1026A8000E461C46006828D0DA6802F0030282420F
:1026B8003AD1002A38D0DB686A68C3F302130133C1
:1026C800934231D1236823F080532360FEF760FAE8
:1026D800074623689A0030D4A868002E34D063696E
:1026E800296923F0C063490823F4FE43013943EA0A
:1026F800002343EA4163636132E0022810D00328D3
:1027080014D0012810D11B689F0738D5E3686A6880
:1027180023F07303013A184340EA0210E060D1E75E
:102728001B6813F4806FF1D10120F8BD1A6891037A
:10273800ECD41B6813F4802FF5E7FEF729FAC01BC9
:102748000228C6D90320F8BD6269EB6822F41F325B
:1027580022F4407242EA00221B0942EA43426261C3
:10276800236843F080532360FEF712FA0646236875
:102778009B0005D563696A69134363610020F8BD4E
:10278800FEF706FA801B0228F1D9DBE700100240A9
:102798002DE9F347066816F40066044624D0416E16
:1027A800B1F5800F2CD002D8C1B101261CE0B1F5DB
:1027B800000F0DD0B1F5400FF7D14D4A616ED2F838
:1027C800883023F440030B43C2F8883000260BE01E
:1027D800474AD36843F48033D360EEE70430FFF709
:1027E800CBFE06460028E8D02368D80406D5A16E9B
:1027F800B1F1807F74D008D8A9B10126354621E00F
:1028080000212030FFF746FFEBE7B1F1007F04D04D
:10281800B1F1407FF1D1354609E0354AD36843F438
:102828008033D360F7E7201DFFF7A6FE0546002D8D
:102838005CD12F4AA16ED2F8883023F040730B4345
:10284800C2F888302368990340F14F81284FBB6D47
:10285800DA0040F176814FF00008DFF89890D9F857
:10286800003043F48073C9F80030FEF791F98246CE
:10287800D9F80030DB053FD5002D44D1D7F890308A
:1028880013F4407315D0D4F88420934211D0D7F8AC
:102898009030D7F8902042F48032C7F89020D7F8CB
:1028A800902023F4407322F48032C7F89020C7F8B0
:1028B8009030D80709D5FEF76BF941F288390546FB
:1028C800D7F89030990740F10981D7F89030D4F8BB
:1028D800842023F440731343C7F89030354612E040
:1028E800002104F12000FFF7D5FE9FE72E46A9E757
:1028F8000010024000700040FEF74AF9A0EB0A0001
:102908000228B5D90325B8F1000F03D0BB6D23F019
:102918008053BB652368DA0708D59049A06BD1F8C6
:10292800882022F003020243C1F888209F0708D5B7
:102938008A49E06BD1F8882022F00C020243C1F8E2
:1029480088205E0708D58549206CD1F8882022F0B8
:1029580030020243C1F88820180708D57F49606C07
:10296800D1F8882022F0C0020243C1F88820D90695
:1029780008D57A49A06CD1F8882022F44072024325
:10298800C1F888209A0608D57449E06CD1F88820E7
:1029980022F440620243C1F888209F0508D56F4998
:1029A800E06DD1F8882022F440220243C1F8882043
:1029B8005E0508D56949206ED1F8882022F44012B6
:1029C8000243C1F88820580608D56449206DD1F81B
:1029D800882022F440520243C1F88820190608D5FD
:1029E8005E49606DD1F8882022F440420243C1F864
:1029F8008820DA0508D55949A06DD1F8882022F435
:102A080040320243C1F888209B040FD5534AE16E37
:102A1800D2F8883023F040630B43B1F1006FC2F85D
:102A2800883064D1D36843F48013D36023681F03CC
:102A38000FD54A4A216FD2F8883023F040630B4300
:102A4800B1F1006FC2F888305CD1D36843F48013C9
:102A5800D36023685E030FD5404A616FD2F888308F
:102A680023F040630B43B1F1006FC2F8883054D1B2
:102A7800D36843F48013D3602368580412D53749C8
:102A8800A26FD1F8883023F040531343B2F1805F2E
:102A9800C1F888304CD10221201DFFF76DFD0028B8
:102AA80018BF05462268110408D52C49E06FD1F8F3
:102AB800883023F080430343C1F88830D30309D515
:102AC800264AD4F88010D2F8883023F000430B430C
:102AD800C2F88830284602B0BDE8F087FEF758F8FB
:102AE800401B48457FF6ECAE0CE7354612E7B1F1DE
:102AF800806F9BD10121201DFFF73EFD002818BFE4
:102B0800054693E7B1F1806FA3D10121201DFFF79E
:102B180033FD002818BF05469BE7B1F1806FABD1A4
:102B28000121201DFFF728FD002818BF0546A3E74F
:102B3800B2F1005FB6D1022104F12000FFF7AAFD2F
:102B4800ADE7BB6D43F08053BB65BB6D03F08053AD
:102B58000193019B4FF001087FE600BF001002407F
:102B6800036A23F001030362036A70B5446882694B
:102B78000D6822F4803222F073022A438D6823F014
:102B880002032B431B4DA8420FD005F50065A84250
:102B98000BD005F54065A84207D005F58065A84229
:102BA80003D005F58065A8421ED1CD6823F008033F
:102BB8002B43104DA84223F004030FD005F5006500
:102BC800A8420BD005F54065A84207D005F58065F9
:102BD800A84203D005F58065A84205D124F44075C4
:102BE8008E694C6934432C43446082614A6842636D
:102BF800036270BD002C0140036A23F480730362F2
:102C0800036A70B54468C2690D6822F4803222F004
:102C180073022A438D6823F4007343EA0523164D93
:102C2800A84203D005F50065A8420DD1CD6823F46C
:102C3800006343EA0523104DA84223F480630ED0B5
:102C480005F50065A8420AD00C4DA84207D005F545
:102C58008065A84203D005F58065A84206D124F412
:102C680040558E694C69344345EA04144460C26196
:102C78004A68C263036270BD002C014000400140F5
:102C8800036A23F480530362036A30B54468C26957
:102C98000D6822F0807222F4E64242EA05228D682D
:102CA80023F4005343EA05330E4DA8420FD005F52F
:102CB8000065A8420BD005F54065A84207D005F588
:102CC8008065A84203D005F58065A84204D14D6906
:102CD80024F4804444EA85144460C2614A6802646A
:102CE800036230BD002C0140036A23F48033036281
:102CF800036A30B54468426D0D6822F4803222F0D0
:102D080070022A438D6823F4003343EA05430F4DCC
:102D1800A8420FD005F50065A8420BD005F540651F
:102D2800A84207D005F58065A84203D005F580655F
:102D3800A84204D14D6924F4803444EA052444604F
:102D480042654A688265036230BD00BF002C0140BD
:102D5800036A23F480130362036A30B54468426D42
:102D68000D6822F0807222F4E04242EA05228D6862
:102D780023F4001343EA05530E4DA8420FD005F57E
:102D88000065A8420BD005F54065A84207D005F5B7
:102D98008065A84203D005F58065A84204D14D6935
:102DA80024F4802444EA8524446042654A68C26564
:102DB800036230BD002C01400223026880F83D30D8
:102DC8009168084B0B40062B06D0B3F5803F1EBF19
:102DD800136843F001031360012380F83D3000209D
:102DE800704700BF0700010070470000304A0368C1
:102DF800904212D0B0F1804F0FD0A2F59432904299
:102E08000BD002F58062904207D002F580629042B2
:102E180003D002F59432904219D14A6823F0700326
:102E28001343234A90421DD0B0F1804F1AD0A2F527
:102E38009432904216D002F58062904212D002F588
:102E4800806290420ED002F5943290420AD0194A1C
:102E5800904207D002F58062904203D002F580626A
:102E6800904203D1CA6823F4407313434A6923F09C
:102E78008003134303608B68C3620B6883620C4B47
:102E880098420FD003F5006398420BD003F54063D6
:102E9800984207D003F58063984203D003F5806316
:102EA800984201D10B69036301234361704700BF56
:102EB800002C01400040014010B50446A0B190F834
:102EC8003D3003F0FF021BB980F83C20FDF7B6FD4A
:102ED800022384F83D302068211DFFF787FF012376
:102EE80084F83D30002010BD012010BD10B5044607
:102EF800A0B190F83D3003F0FF021BB980F83C20E8
:102F0800FFF772FF022384F83D302068211DFFF788
:102F18006DFF012384F83D30002010BD012010BD55
:102F2800036A23F010030362036A70B54468826978
:102F38000D6822F0807222F4E64242EA05228D688A
:102F480023F0200343EA0513164DA84203D005F5E4
:102F58000065A8420DD1CD6823F0800343EA05132C
:102F6800104DA84223F040030ED005F50065A84295
:102F78000AD00D4DA84207D005F58065A84203D0B8
:102F880005F58065A84206D124F440658E694C6930
:102F9800344345EA8404446082614A688263036278
:102FA80070BD00BF002C01400040014090F83C304B
:102FB800012B10B504464FF0020010D00123082A57
:102FC80084F83C3084F83D001CD009D892B1042A1A
:102FD80014D00123002084F83D3084F83C0010BD53
:102FE800102A13D0142A15D00C2AF2D12068FFF722
:102FF80047FEEEE72068FFF7B3FDEAE72068FFF732
:103008008FFFE6E72068FFF7F7FDE2E72068FFF7A4
:103018006BFEDEE72068FFF79BFEDAE710B58468F1
:103028000A4324F47F4442EA03232343836010BD08
:1030380090F83C30012B70B504464FF0020017D0D1
:1030480084F83D002068012384F83C308268414BB5
:10305800134083600B68402B65D015D8102B0CD01B
:1030680007D853B10123002084F83D3084F83C0090
:1030780070BD202B01D0302BF4D1826843F00703B8
:1030880022F0700213431AE0602B34D019D8502B69
:10309800E8D14A68CE68016A056A25F0010505622B
:1030A800836921F00A0123F0F00343EA06130A4377
:1030B80083610262836823F0700343F057038360DF
:1030C800D0E7702B0CD0B3F5005FCBD1CB684A6842
:1030D8008968FFF7A3FF2268936843F4804308E0F8
:1030E800CB684A688968FFF799FF2268936843F0BC
:1030F80077039360B6E74D68CE68016A21F0100146
:1031080001628269036A22F4704223F0A00343EA51
:10311800051342EA063282610362836823F0700372
:1031280043F06703CBE74A68CE68016A056A25F071
:1031380001050562836921F00A0123F0F00343EADF
:1031480006130A4383610262836823F0700343F025
:103158004703B4E78800FEFF90F83C30012B70B5B8
:103168004FF0020339D080F83D301D4D036801222D
:10317800AB4280F83C205A689C6802D0194EB34292
:1031880003D14E6822F4700232430E6822F07002B6
:103198003243AB425A6015D0B3F1804F12D0124A75
:1031A80093420FD002F5806293420BD002F5806201
:1031B800934207D002F59432934203D002F540625D
:1031C800934204D1896824F080020A439A6001235B
:1031D80080F83D30002380F83C30184670BD00BFB1
:1031E800002C014000340140000400400268C1691D
:1031F800F8B50446836800691568034360690343AA
:10320800BA480B432840034313605368E06823F42B
:10321800405303435360B64BA0699A421CBF236ACC
:103228001843936823F4306303439360B14B9A4285
:1032380019D103F55843B04AD3F8883003F0030393
:10324800B1F5004FD35C40F03881082B00F28F8035
:10325800DFE813F01A01CA00F9008D0014018D008F
:103268008D008D003600A54B9A4207D103F5E63351
:10327800A34AD3F8883003F00C03E1E7A14B9A4244
:1032880023D103F5E433D3F8883003F03003102B4F
:1032980000F0F1800BD8002B00F0F380B1F5004F5F
:1032A8004FF001024FF0000300F0F880A8E0202B57
:1032B80000F0C680302BF1D1B1F5004F40F0B88056
:1032C8006068430803F58033C3E08F4B9A421ED1F0
:1032D80003F5E233D3F8883003F0C003402B00F045
:1032E800BB800AD87BB9824B9A4240F0CA80FFF76C
:1032F8001FF90023B0BB02463AE0802B00F09D8006
:10330800C02B00F0B0807A4B9A42C7D12FE07F4B98
:103318009A4211D103F5E033D3F8883003F44073AF
:10332800B3F5807F00F09880DCD9B3F5007F00F01A
:103338008480B3F5407FE4E76D4B9A42AED103F544
:10334800C833D3F8883003F44063B3F5806F00F0D6
:103358008380C7D9B3F5006F6FD0B3F5406FD0E75E
:103368006B480223626802EB4201814205D90122BF
:103378000023236663661046F8BDB0EB023FF6D81B
:10338800082B2ED8DFE803F0052D1C2D242D2D2D1C
:103398002700FFF7CDF862684FF4807156080027C0
:1033A800E1FB0067002330463946FCF709FF00229D
:1033B800584BA0F540719942D9D82368D860D7E70F
:1033C8005548550800230021401941F10001ECE758
:1033D800FEF744FDDFE750080021002310F5000048
:1033E800F3E701220020E3E7FFF7B4F84EE0FFF728
:1033F8009FF8626800EB5203B3FBF2F39BB2002222
:10340800A3F110004FF6EF718842B0D82168CB6065
:10341800AEE7FFF79FF8ECE76068430803F574032D
:1034280003F51053B3FBF0F3E8E7FEF717FDE0E709
:103438006068430803F50043F4E72D4B9A428FD0A8
:10344800B1F5004FE8D16068430803F1F47303F560
:103458009043B3FBF0F31FE0254B9A420BD1FEF7E4
:10346800FDFC042346E7224B9A427FF425AF4FF434
:103478000040082376E7B1F5004FD6D1FEF7EEFC01
:1034880004E0B1F5004FB2D1FFF752F861684A087D
:1034980002EB4003B3FBF1F39BB20022A3F110004F
:1034A8004FF6EF7188423FF662AF23F00F012068B4
:1034B800C3F342030B43C3605AE7082B3FF657AFE9
:1034C80001A252F823F000BFF73300081B340008AC
:1034D80021340008773300083334000877330008B4
:1034E800773300087733000839340008F369FFEFB1
:1034F80000800040003801401C38000800440040AB
:103508002038000800480040004C004000500040AF
:103518000024F400FFFC0F00000024F4436ADA07DB
:1035280010B506D50168846A4A6822F4003222433D
:103538004A609C0706D50168C46A4A6822F480324A
:1035480022434A60590706D50168046B4A6822F489
:10355800802222434A601A0706D50168446B4A68EC
:1035680022F4004222434A60DC0606D50168846BD7
:103578008A6822F4805222438A60990606D5016837
:10358800C46B8A6822F4005222438A605A060FD517
:103598000168046C4A6822F480122243B4F5801F43
:1035A8004A6005D14A68446C22F4C00222434A604A
:1035B8001B0606D50268816C536823F400230B436D
:1035C800536010BD2DE9F041069D04460F4616468E
:1035D80098462168CA6937EA02030CBF0122002213
:1035E800B24202D00020BDE8F081681CF2D0FDF79D
:1035F800CFFAA0EB080085422068036800D37DB9A4
:1036080023F4D0730360836823F0010383602023CD
:103618006367A367002384F870300320BDE8F08156
:103628005A07D6D5C3691B05D3D54FF40063036287
:10363800036823F4D0730360836823F00103836075
:1036480020236367A367E367E4E773B504460026AE
:10365800C667FDF79DFA23681B681A07054615D447
:1036680023681B685B070AD56FF07E43009300222E
:103678002B464FF480012046FFF7A4FF90B9202382
:103688000020636784F87000A3670CE06FF07E4346
:103698000093324603464FF400112046FFF792FF8D
:1036A8000028DDD0032002B070BD10B5044640B339
:1036B800436F1BB980F87030FDF7F0F922682423B6
:1036C8006367136823F0010313602046FFF78EFD3C
:1036D800012816D0636A13B12046FFF71FFF23683D
:1036E8005A6822F490425A609A6822F02A029A6034
:1036F8001A6842F0010220461A60BDE81040FFF740
:10370800A4BF012010BD0000DFF834D0002103E081
:103718000C4B5B58435004310B480C4B42189A42EF
:10372800F6D30B4A02E0002342F8043B094B9A42C5
:10373800F9D3FDF711F900F011F8FDF793F8FEE75A
:103748000080012040380008000000200C00002004
:103758000C0000203C020020FEE7000070B50D4E72
:103768000D4CA41BA4100025A54209D10B4E0C4CEE
:1037780000F020F8A41BA4100025A54205D170BDB7
:1037880056F8253098470135EEE756F82530984722
:103798000135F2E7383800083838000838380008AA
:1037A8003C38000802440346934200D1704703F8AE
:1037B800011BF9E7F8B500BFF8BC08BC9E46704786
:0C37C800F8B500BFF8BC08BC9E46704776
:1037D40000000000000000000102030406070809BD
:1037E4000000000001020304A0860100400D030054
:1037F400801A060000350C0040420F0080841E0031
:1038040000093D0000127A000024F40000366E0125
:103814000048E801006CDC020104020800101010EA
:0C3824000410101002101010080000002A
:08383000C8C9FF7F0100000080
:04383800AD010008D6
:04383C0089010008F6
:0C38400000093D00010000001000000025
:0400000508003711A7
:00000001FF
